:100000000C9443000C9455000C9455000C9455002E
:100010000C9455000C9455000C9455000C9455000C
:100020000C9455000C9455000C9455000C945500FC
:100030000C9455000C9455000C9442010C945500FE
:100040000C9455000C9455000C9455000C945500DC
:100050000C9455000C9455000C9455000C945500CC
:100060000C9455000C94550005A84CCDB2D44EB953
:100070003836A9020C50B9918688083CA6AAAA2A4B
:10008000BE000000803F11241FBECFEFD8E0DEBFCE
:10009000CDBF24E0A0E0B1E001C01D92AA3FB207AD
:1000A000E1F70E94F5010C94CD040C9400002F920E
:1000B0003F924F925F926F927F928F929F92AF92F8
:1000C000BF92CF92DF92EF92FF920F931F93CF9345
:1000D000DF93CDB7DEB7C25FD3400FB6F894DEBF73
:1000E0000FBECDBFCE010196CF50DC4F99838883E0
:1000F000C15FD3401C0110E000E093E8892E99EF26
:10010000992E92EAA92E9EE3B92E0F33110509F01C
:100110008AC0C350DF4F88829982AA82BB82CD5F9A
:10012000D0400F5F1F4FF4E02F0E311C0F37110529
:1001300061F78E0107501E4F6801F12CE12CB701C9
:100140000F2C000C880B990B0E9444032BED3FE011
:1001500049EC50E40E940F0420E030E04CEF52E400
:100160000E949A020E9495022FE135E84BEE5EE371
:100170000E940F049B01AC0161E77DE38AE09FE3ED
:100180000E942802F60161937193819391936F010C
:10019000FFEFEF1AFF0A8FE7E816F10481F680E01F
:1001A000E82E81E0F82E680194E0C91A9EEFD90A82
:1001B000F80161917191819191918F01CF50DC4F44
:1001C000E881F981C15FD3402191319141915191F1
:1001D000CF50DC4FF983E883C15FD3400E940F0406
:1001E000F70161937193819391937F010C151D0524
:1001F000F9F6CE50DC4F0FB6F894DEBF0FBECDBF80
:10020000DF91CF911F910F91FF90EF90DF90CF90F2
:10021000BF90AF909F908F907F906F905F904F9026
:100220003F902F900895B8016F537109072E000C6D
:10023000880B990B0E9444036B017C012CE739E584
:1002400044E455E40E940F0420E030E44CE955E416
:100250000E949A020E947C042B013C012BED3FE09E
:1002600049E450E4C701B6010E940F049B01AC01B0
:10027000C301B2010E949A02F101608371838283FB
:1002800093834FCF1F920F920FB60F921124AF920C
:10029000BF92CF92DF92EF92FF920F931F932F9313
:1002A0003F934F935F936F937F938F939F93AF93FE
:1002B000BF93CF93DF93EF93FF9380917C00807F78
:1002C00080937C0080917A00806480937A00809192
:1002D0007A0086FDFCCF6091780070917900C09122
:1002E000F404D091F5048E01000F111F000F111FAF
:1002F00008501D4F90E080E00E94420320E030E073
:10030000A9010E940F04F8016083718382839383A3
:100310002196CF37D10509F460C0D093F504C0937E
:10032000F404C091F404D091F50400E011E03CEF36
:10033000A32E32E0B32EC12CD12C76011C161D0643
:100340000CF050C02197F8016191719181919191C8
:100350008F01FE01EE0FFF1FEE0FFF1FE850FD4F54
:1003600020813181428153810E940F049B01AC01A5
:10037000C701B6010E9429026B017C01A016B106DB
:10038000E9F6C092F604D092F704E092F804F092F5
:10039000F90420E030E04FE753E40E940F040E948C
:1003A0000C036BB9FF91EF91DF91CF91BF91AF91AA
:1003B0009F918F917F916F915F914F913F912F917D
:1003C0001F910F91FF90EF90DF90CF90BF90AF9073
:1003D0000F900FBE0F901F9018951092F504109279
:1003E000F4049FCFCEE7D0E0AECF8FEF8AB915B837
:1003F0000E9457001092F5041092F4041092F60433
:100400001092F7041092F8041092F904789481E0A5
:1004100085BD84B5826084BD80916E0082608093CA
:100420006E008FE987BD80917C00806480937C00A2
:1004300080917C008F7780937C0080917C008F7D01
:1004400080937C0080917A00806880937A00FFCF4F
:100450005058BB27AA270E9440020C94C1030E9457
:10046000880338F00E948F0320F039F49F3F19F47D
:1004700026F40C9485030EF4E095E7FB0C947F03BF
:10048000E92F0E94E60358F3BA176207730784073F
:10049000950720F079F4A6F50C9408040EF4E09585
:1004A0000B2EBA2FA02D0B01B90190010C01CA012E
:1004B000A0011124FF27591B99F0593F50F4503ED9
:1004C00068F11A16F040A22F232F342F4427585FCB
:1004D000F3CF469537952795A795F0405395C9F7E3
:1004E0007EF41F16BA0B620B730B840BBAF091509B
:1004F000A1F0FF0FBB1F661F771F881FC2F70EC03A
:10050000BA0F621F731F841F48F48795779567950C
:10051000B795F7959E3F08F0B0CF9395880F08F0F8
:100520009927EE0F9795879508950E949803E39574
:100530000C94D2030E94AE020C94C1030E948F035C
:1005400058F00E94880340F029F45F3F29F00C9492
:100550007F0351110C9409040C9485030E94E60357
:1005600068F39923B1F3552391F3951B550BBB27E2
:10057000AA2762177307840738F09F5F5F4F220F27
:10058000331F441FAA1FA9F335D00E2E3AF0E0E81E
:1005900032D091505040E695001CCAF72BD0FE2F68
:1005A00029D0660F771F881FBB1F261737074807FC
:1005B000AB07B0E809F0BB0B802DBF01FF279358B4
:1005C0005F4F3AF09E3F510578F00C947F030C94F6
:1005D00009045F3FE4F3983ED4F3869577956795D9
:1005E000B795F7959F5FC9F7880F911D96958795E9
:1005F00097F90895E1E0660F771F881FBB1F621708
:1006000073078407BA0720F0621B730B840BBA0BC5
:10061000EE1F88F7E09508950E9413036894B111C6
:100620000C94090408950E94EE0388F09F5798F0F7
:10063000B92F9927B751B0F0E1F0660F771F881FE7
:10064000991F1AF0BA95C9F714C0B13091F00E9401
:100650000804B1E008950C940804672F782F8827C8
:10066000B85F39F0B93FCCF3869577956795B39528
:10067000D9F73EF490958095709561957F4F8F4F97
:100680009F4F0895E89409C097FB3EF4909580959C
:10069000709561957F4F8F4F9F4F9923A9F0F92F48
:1006A00096E9BB279395F695879577956795B795C6
:1006B000F111F8CFFAF4BB0F11F460FF1BC06F5FAC
:1006C0007F4F8F4F9F4F16C0882311F096E911C0BE
:1006D000772321F09EE8872F762F05C0662371F0DF
:1006E00096E8862F70E060E02AF09A95660F771FF3
:1006F000881FDAF7880F9695879597F9089597F9E7
:100700009F6780E870E060E008959FEF80EC0895B7
:1007100000240A94161617061806090608950024E0
:100720000A94121613061406050608950C94850300
:100730000E94EE03D8F3E894E0E0BB279F57F0F067
:100740002AED3FE049EC06C0EE0FBB0F661F771F96
:10075000881F28F0B23A62077307840728F0B25A5C
:10076000620B730B840BE3959A9572F7803830F423
:100770009A95BB0F661F771F881FD2F790480C947D
:100780008604092E0394000C11F4882352F0BB0F49
:1007900040F4BF2B11F460FF04C06F5F7F4F8F4F99
:1007A0009F4F0895EF93E0FF07C0A2EA2AED3FE0D4
:1007B00049EC5FEB0E9440020E94C1030F9003943A
:1007C00001FC9058E8E6F0E00C94920457FD905834
:1007D000440F551F59F05F3F71F04795880F97FB05
:1007E000991F61F09F3F79F08795089512161306BF
:1007F0001406551FF2CF4695F1DF08C016161706EE
:100800001806991FF1CF8695710561050894089522
:10081000E894BB2766277727CB0197F908950E94B4
:1008200022040C94C1030E94880338F00E948F03B5
:1008300020F0952311F00C947F030C948503112470
:100840000C9409040E94E60370F3959FC1F3950F81
:1008500050E0551F629FF001729FBB27F00DB11D44
:10086000639FAA27F00DB11DAA1F649F6627B00DD4
:10087000A11D661F829F2227B00DA11D621F739FBD
:10088000B00DA11D621F839FA00D611D221F749FCB
:100890003327A00D611D231F849F600D211D822F12
:1008A000762F6A2F11249F5750409AF0F1F0882339
:1008B0004AF0EE0FFF1FBB1F661F771F881F915066
:1008C0005040A9F79E3F510580F00C947F030C9493
:1008D00009045F3FE4F3983ED4F3869577956795D6
:1008E000B795F795E7959F5FC1F7FE2B880F911D90
:1008F0009695879597F908959F930E9498030F9076
:1009000007FCEE5F0C94D2039F3F31F0915020F42E
:10091000879577956795B795880F911D96958795DB
:1009200097F908959F938F937F936F93FF93EF931E
:100930009B01AC010E940F04EF91FF910E94A6045D
:100940002F913F914F915F910C940F04DF93CF93C0
:100950001F930F93FF92EF92DF927B018C016894BB
:1009600006C0DA2EEF010E942204FE01E894A59150
:100970002591359145915591A6F3EF010E944002D2
:10098000FE019701A801DA9469F7DF90EF90FF90DC
:0E0990000F911F91CF91DF910895F894FFCF42
:00000001FF
